:100000000C94B41D0C94E51D0C94E51D0C94E51D99
:100010000C94E51D0C94E51D0C94E51D0C94E51D58
:100020000C94E51D0C94E51D0C94E51D0C94E51D48
:100030000C94E51D0C9420F00C94E51D0C94E51D2A
:100040000C94E51D0C942BC40C94E51D0C94E51D3B
:100050000C94E51D0C94E51D0C942EB20C94F4F256
:100060000C94E51D0C94FF890C94E51D0C94E51D82
:100070000C94E51D0C94E51D0C94E51D0C94E51DF8
:100080000C94A5C50C94E51D0C94E51D0C94E51D80
:100090000C94E51D0C94E51D0C94E51D0C94E51DD8
:1000A0000C94E51D0C94E51D0C9477C50C94E51D8E
:1000B0000C94E51D0C94E51D0C94E51D0C9449C5AC
:1000C0000C94E51D0C94E51D0C94E51D0C94E51DA8
:1000D0000C94E51D0C94E51D0C94E51D0C94E51D98
:1000E0000C94E51D084AD73B3BCE016E84BCBFFD96
:1000F000C12F3D6C74319ABD56833DDA3D00C77FF8
:1001000011BED9E4BB4C3E916BAAAABE0000008090
:100110003F05A84CCDB2D44EB93836A9020C50B91F
:10012000918688083CA6AAAA2ABE000000803F004B
:100130000D94060A0D9426060D9423000D940F08C5
:100140000D9466080D947D060D944F090D946E1361
:100150000D94AA0B0D9482070D9425000D942A1579
:100160000D94D4060D94BC090D94EC0A0D94BD08B1
:100170000D94D9070D942B074E414E494E495459C1
:10018000494E46CDCCCC3D0AD7233C17B7D1387762
:10019000CC2B329595E6241FB14F0A000020410078
:1001A00000C84200401C4620BCBE4CCA1B0E5AAEC2
:1001B000C59D7400407A10F35A00A0724E180900D1
:1001C00010A5D4E80000E87648170000E40B5402BC
:1001D0000000CA9A3B000000E1F5050000809698F7
:1001E00000000040420F000000A086010000001047
:1001F0002700000000E80300000000640000000089
:10020000000A00000000000100000000002C76D869
:1002100088DC674F0823DFC1DFAE59E1B1B796E54F
:10022000E3E453C63AE651997696E8E6C28426EBB3
:10023000898C9B62ED407C6FFCEFBC9C9F40F2BAC6
:10024000A56FA5F490055A2AF75C936B6CF9676D5E
:10025000C11BFCE0E40D47FEF520E6B500D0ED90B3
:100260002E0300943577050080841E080000204E80
:100270000A000000C80C333333330F986E12831119
:1002800041EF8D2114893BE65516CFFEE6DB18D1F0
:10029000844B381BF77C1D901DA4BBE424203284C2
:1002A000725E228100C9F124ECA1E53D27434F4D48
:1002B0004D554E49434154494F4E004452595255B1
:1002C0004E004552524F525300494E464F0045434F
:1002D000484F00656E7175657565696E672022000F
:1002E0004B494C4C45442E200053544F50504544EC
:1002F0002E20005072696E7465722073746F707076
:1003000065642064756520746F206572726F727306
:100310002E2046697820746865206572726F72209D
:10032000616E6420757365204D39393920746F20F2
:10033000726573746172742E202854656D706572D5
:1003400061747572652069732072657365742E20FF
:1003500053657420697420616674657220726573D8
:1003600074617274696E67290A004E6F2043686574
:10037000636B73756D2077697468206C696E652096
:100380006E756D6265722C204C617374204C696EC1
:10039000653A20004E6F20436865636B73756D206E
:1003A00077697468206C696E65206E756D62657220
:1003B0002C204C617374204C696E653A2000636890
:1003C00065636B73756D206D69736D617463682C03
:1003D000204C617374204C696E653A20004C696E44
:1003E00065204E756D626572206973206E6F742092
:1003F0004C617374204C696E65204E756D62657238
:100400002B312C204C617374204C696E653A2000AE
:100410004D313130004D33310053442072656164F9
:10042000206572726F720A00446F6E652070726987
:100430006E74696E672066696C650A0020496E7685
:10044000616C69642065787472756465722000005F
:1004500000000000000000000000000000FA43005F
:1004600000FA430000FA4342696C696E65617220CC
:100470004C6576656C696E6720477269643A0A005C
:1004800047322F47332062616420706172616D656D
:10049000746572730A00202844525952554E29003F
:1004A000473239204175746F20426564204C65766F
:1004B000656C696E67003F20284C2C522C462C42FC
:1004C00029206F7574206F6620626F756E64732EBD
:1004D0000A003F2856296572626F7365206C657645
:1004E000656C20697320696D706C61757369626CED
:1004F000652028302D34292E0A00426164205A20BC
:1005000076616C75650A004E6F2062696C696E6574
:10051000617220677269640A0044656C6574696F72
:100520006E206661696C65642C2046696C653A20B2
:100530000046696C652064656C657465643A004DBD
:10054000343820526573756C743A202573005374E7
:10055000616E6461726420446576696174696F6E6E
:100560003A20002052616E67653A2000204D617884
:100570003A2000204D696E3A20004D65616E3A20A8
:100580000046696E6973686564210A002072616EB5
:1005900067653A2000206D61783A2000206D696E11
:1005A0003A2000207369676D613A2000206D656113
:1005B0006E3A20003A207A3A2000206F66200050E0
:1005C0006F736974696F6E696E67207468652070F7
:1005D000726F62652E2E2E0A003F2028582C592952
:1005E000206F7574206F6620626F756E64732E0ABB
:1005F000003F53616D706C652073697A65206E6F82
:100600007420706C61757369626C652028342D35B7
:1006100030292E0A004D34382054657374205275E9
:100620006E6E696E672E2E2E0A003F28562965725F
:10063000626F7365206C6576656C206572726F728F
:100640002028302D34292E0A0020573A0045204317
:100650006F6F6C696E672E2E2E00452048656174A1
:10066000696E672E2E2E0020573A00426564206383
:100670006F6F6C696E672E2E2E0042656420686570
:100680006174696E672E2E2E00205A3A0020593A66
:100690000020436F756E7420583A0020453A0020C0
:1006A0005A3A0020593A00583A003A004361703AE9
:1006B00000205A00205900580020204D61783A202F
:1006C00000205A00205900580020204D696E3A2021
:1006D000004F6E20004F666600536F667420656E93
:1006E0006473746F70733A200023646566696E6585
:1006F0002044454641554C545F4B642000236465BB
:1007000066696E652044454641554C545F4B6920EF
:100710000023646566696E652044454641554C5426
:100720005F4B702000504944204175746F74756EA2
:10073000652066696E697368656421205075742050
:10074000746865206C617374204B702C204B692099
:10075000616E64204B6420636F6E7374616E74739A
:100760002066726F6D2062656C6F7720696E746FA2
:1007700020436F6E66696775726174696F6E2E686B
:100780000A00504944204175746F74756E65206687
:1007900061696C6564212074696D656F75740A0008
:1007A000453120544845524D414C2052554E4157F9
:1007B000415900546865726D616C2052756E6177A5
:1007C00061790045312048656174696E6720666112
:1007D000696C65640048656174696E67206661696B
:1007E0006C656400504944204175746F74756E6582
:1007F000206661696C6564212054656D7065726165
:100800007475726520746F6F20686967680A0020CC
:100810004B643A2000204B693A2000204B703A206C
:10082000000A20436C617373696320504944200AB5
:10083000002054753A2000204B753A2000206D614D
:10084000783A2000206D696E3A200020643A20003A
:1008500020626961733A2000504944204175746FE9
:1008600074756E652073746172740A005049442077
:100870004175746F74756E65206661696C6564217D
:100880002054656D706572617475726520746F6F48
:1008900020686967680A00504944204175746F7484
:1008A000756E65206661696C656421204261642013
:1008B0006578747275646572206E756D6265720A12
:1008C00000426564204C6576656C696E6720004661
:1008D00061696C656420746F20656E61626C65206F
:1008E000426564204C6576656C696E670A004F66E8
:1008F0006673657473206170706C6965640045721D
:10090000723A20546F6F206661722100546F6F201D
:100910006661722066726F6D207265666572656EC3
:10092000636520706F696E740A00496E7365727436
:100930002066696C616D656E7420616E64207072F2
:1009400065737320627574746F6E0A0050726573FC
:100950007320627574746F6E20746F2068656174A3
:10096000206E6F7A7A6C650A00496E736572742026
:1009700066696C616D656E7420616E64207072656D
:10098000737320627574746F6E20286F72204D31FE
:100990003038290A00536C6565702E2E2E00486F82
:1009A0006D652058592066697273740A00486F6D2E
:1009B0006520585920666972737400205A3A2000E5
:1009C00020593A200042656420583A20004D657352
:1009D0006820706F696E742063616E6E6F74206240
:1009E00065207265736F6C7665640A00436C696399
:1009F0006B20746F20726573756D652E2E2E004E00
:100A00006F206D6F76652E00456E642066696C659B
:100A1000206C6973740A00426567696E2066696CB0
:100A200065206C6973740A004D31323500286E6F91
:100A30002066696C65290043757272656E74206664
:100A4000696C653A20005344207072696E74696E57
:100A500067206279746520004E6F742053442070C3
:100A600072696E74696E670A002569730025696D85
:100A700020256973002569682025696D2025697323
:100A800000256964202569682025696D2025697322
:100A90000025697920256964202569682025696D0C
:100AA00020256973005072696E742074696D653A0F
:100AB00020006F666600CE02C902C202BB02AD0210
:100AC00044454255473A004B494C4C45442E200082
:100AD0004D3131332053006F6B0054483344204272
:100AE0004C546F756368204F66662E002C20002CD6
:100AF0002000544845524D414C5F50524F5445439D
:100B000054494F4E004155544F5245504F52545F37
:100B100053445F53544154555300454D4552474546
:100B20004E43595F50415253455200434153455F34
:100B30004C494748545F4252494748544E455353E5
:100B400000544F47474C455F4C4947485453005366
:100B50004F4654574152455F504F574552004255FA
:100B6000494C445F50455243454E54004C45564510
:100B70004C494E475F44415441005A5F50524F42E6
:100B800045004155544F4C4556454C005052494E36
:100B9000545F4A4F420050524F4752455353004111
:100BA00055544F5245504F52545F54454D50005686
:100BB0004F4C554D455452494300454550524F4DB9
:100BC0000053455249414C5F584F4E5F584F46467F
:100BD000004649524D574152455F4E414D453A4DB1
:100BE00061726C696E20544833442055312E523264
:100BF0002E313720534F555243455F434F44455F95
:100C000055524C3A2050524F544F434F4C5F56452B
:100C10005253494F4E3A312E30204D414348494EB0
:100C2000455F545950453A5448334420424C546F20
:100C30007563682045585452554445525F434F559B
:100C40004E543A3120555549443A0A002F2F20007E
:100C50004D31343520533C696E6465783E206F75A4
:100C600074206F662072616E67652028302D3129EF
:100C70000A00205400205200416363656C65726174
:100C800074696F6E3A2050003F4A206F7574206F70
:100C9000662072616E67652028302E303120746FB7
:100CA00020302E33290A0020466C6F773A2000004E
:100CB0000136372603FFFFFF353C3D380EFFFFFFAF
:100CC000312E303E12FFFFFFFF28FF0C0809FFFF07
:100CD000FF1A1C18FFFF2A08440AFF4350726F7462
:100CE00065637465642050696E0A003A20002053E1
:100CF0006572766F2000206F7574206F66207261B8
:100D00006E67650A00536572766F200050726F62DD
:100D100065205A204F66667365743A2000496E76E6
:100D2000616C69642065787472756465720A00206C
:100D3000643A0020693A0020703A0043290A0061B1
:100D4000626C656420286D696E2074656D7020008A
:100D5000436F6C642065787472756465732061728A
:100D60006520004E6F2063617365206C696768744D
:100D70000A004D65736820706F696E742063616E40
:100D80006E6F74206265207265736F6C7665640A9D
:100D9000004D34323120696E636F72726563742066
:100DA000706172616D657465722075736167650A43
:100DB00000454550524F4D204F4B0A003F5A206F7F
:100DC0007574206F662072616E676520282D35204E
:100DD000746F2031290A003A200050726F6265203A
:100DE0005A204F66667365740041637469766520A6
:100DF00045787472756465723A2000496E76616C4C
:100E000069642065787472756465720A005265734E
:100E1000656E643A20006F6B0020746F6F206C6FFA
:100E20006E6720657874727573696F6E2070726575
:100E300076656E7465640A0020636F6C6420657863
:100E400074727573696F6E2070726576656E746505
:100E5000640A00627573793A207061757365642065
:100E6000666F7220696E7075740A00627573793AE4
:100E70002070617573656420666F7220757365728A
:100E80000A00627573793A2070726F6365737369D3
:100E90006E670A004B494C4C45442E20004B494C90
:100EA0004C20636175736564206279204B494C4C1A
:100EB00020627574746F6E2F70696E0A004B494C16
:100EC0004C45442E20004B494C4C206361757365A2
:100ED0006420627920746F6F206D75636820696E7D
:100EE0006163746976652074696D65202D20637572
:100EF0007272656E7420636F6D6D616E643A20006E
:100F00004D36303000506C656173652072657365D5
:100F100074005052494E5445522048414C54454467
:100F2000005072696E7465722068616C7465642E1D
:100F3000206B696C6C28292063616C6C6564210AE4
:100F40000000000000000000000000000000002081
:100F50004200002042000000410000000057617282
:100F60006E696E673A20486F6D696E672042756DD5
:100F7000702044697669736F72203C20310A000248
:100F800002040000A0400000A0400000004000005B
:100F9000FA430000FA430000FA43FFFFFF4D3630EA
:100FA000303A20546F6F20636F6C6400486F746533
:100FB0006E6420746F6F20636F6C640A007C3C3E2B
:100FC0005E2B3D3F2F5B5D3B2C2A225C00457272FD
:100FD0006F722077726974696E6720746F2045455F
:100FE00050524F4D210A00454550524F4D206461EB
:100FF000746173697A65206572726F722E0A0029B6
:101000000A002062797465733B2063726320005389
:10101000657474696E67732053746F7265642028F9
:1010200000290A002062797465733B206372632093
:10103000002073746F7265642073657474696E67E1
:1010400073207265747269657665642028002028B3
:1010500063616C63756C6174656429210A002021E9
:101060003D2000454550524F4D20435243206D696D
:10107000736D61746368202D202873746F726564CA
:101080002920002053697A653A2000496E6465780A
:101090003A2000204D61726C696E3D563536290A42
:1010A0000028454550524F4D3D00454550524F4D4B
:1010B0002076657273696F6E206D69736D617463FC
:1010C00068200048617264636F64656420446566EB
:1010D00061756C742053657474696E6773204C6F0E
:1010E000616465640A00F4010000F401000064001A
:1010F0000000881300000000FA430000FA430000DB
:101100007041000048420000A0420000A0420000E0
:10111000C8430000BE423A0A0020286D6D29002015
:10112000204D36303320002055004C0046696C615C
:101130006D656E74206C6F61642F756E6C6F616489
:10114000206C656E677468733A0A0020204D38354C
:1011500031205A005A2D50726F6265204F666673B7
:1011600065740020440020490020204D3330312098
:1011700050005049442073657474696E67733A0A6D
:101180000020460020420020480020204D31343508
:101190002053004D6174657269616C2068656174EB
:1011A000757020706172616D65746572733A0A00C2
:1011B000205A00204A002020473239205720490079
:1011C00020204D3432302053004175746F20426529
:1011D00064204C6576656C696E673A0A00205A0097
:1011E00020590020204D323036205800486F6D6560
:1011F000206F66667365743A0A00204A0020540026
:1012000020530020204D323035205100204A3C6AC6
:10121000756E635F6465763E00416476616E6365FA
:10122000643A20513C6D696E5F7365676D656E74DD
:101230005F74696D655F75733E20533C6D696E5FC9
:1012400066656564726174653E20543C6D696E5FCD
:1012500074726176656C5F66656564726174653E23
:101260000020540020520020204D32303420500005
:10127000416363656C65726174696F6E2028756E79
:101280006974732F7332293A20503C7072696E74FE
:101290005F616363656C3E20523C7265747261638A
:1012A000745F616363656C3E20543C747261766563
:1012B0006C5F616363656C3E0A00204500205A0044
:1012C00020590020204D3230312058004D6178697E
:1012D0006D756D20416363656C65726174696F6ED5
:1012E0002028756E6974732F7332293A0A002045DD
:1012F00000205A0020590020204D32303320580061
:101300004D6178696D756D2066656564726174659F
:10131000732028756E6974732F73293A0A0020456B
:1013200000205A0020590020204D39322058005307
:10133000746570732070657220756E69743A0A0066
:1013400020204D3134392043203B20556E69747381
:1013500020696E2043656C736975730A002020470D
:101360003231202020203B00486F6D696E67206677
:1013700061696C65640054524947474552454400D1
:101380006F70656E003A200066696C616D656E7401
:10139000007A5F6D696E00795F6D696E00785F6DD0
:1013A000696E005265706F7274696E6720656E6455
:1013B00073746F70207374617475730A0000000099
:1013C000010000000100008000555555000000405C
:1013D0000033333300AAAA2A0049922400000020D7
:1013E00000C7711C0099991900D145170055551572
:1013F000003BB1130024491200111111000000102C
:10140000000F0F0F00E3380E0043790D00CCCC0C19
:1014100000C3300C00E8A20B0064210B00AAAA0A4A
:1014200000703D0A009DD80900427B090092240902
:1014300000DCD3080088880800104208000000087B
:1014400000F0C107008787070075500700711C076F
:10145000003EEB0600A1BC06006990060066660629
:1014600000703E06006118060017F4050074D105EF
:10147000005BB00500B2900500627205005555058D
:101480000078390500B81E0500050505004EEC047E
:101490000087D40400A1BD040090A7040049920471
:1014A00000C17D0400EE690400C7560400444404F2
:1014B000005C320400082104004110040000000414
:1014C000003FF00300F8E0030026D20300C3C3038B
:1014D00000CCB503003AA803000A9B0300388E0332
:1014E00000C08103009F750300D0690300505E03B4
:1014F000001D53030034480300913D0300333303C0
:101500000016290300381F030097150300300C0351
:1015100000030303000BFA020049F10200BAE802DB
:10152000005CE002002DD802002DD0020059C80254
:1015300000B0C0020031B90200DAB10200AAAA026A
:1015400000A0A30200BC9C0200FA9502005C8F027E
:1015500000DF88020082820200457C0200277602BA
:101560000027700200436A02007C640200D05E0221
:10157000003F590200C853020020746F6F206C6F47
:101580006E6720657874727573696F6E207072650E
:1015900076656E7465640A0020636F6C64206578FC
:1015A00074727573696F6E2070726576656E74659E
:1015B000640A00FFFDFCFAF8F6F4F2F0EEECEAE95A
:1015C000E7E5E3E1E0DEDCDAD9D7D5D4D2D0CFCD80
:1015D000CBCAC8C7C5C3C2C0BFBDBCBAB9B7B6B411
:1015E000B3B2B0AFADACAAA9A8A6A5A4A2A1A09E73
:1015F0009D9C9A99989795949392908F8E8D8B8AB3
:101600008988878684838281807F7E7D7B7A7978D2
:1016100077767574737271706F6E6D6C6B6A6968D2
:1016200067666564636261605F5E5D5C5B5A5958C2
:10163000585756555453525150504F4E4D4C4B4A9B
:101640004A4948474646454443424241403F3E3E60
:101650003D3C3B3B3A393838373635353433323216
:101660003130302F2E2E2D2C2B2B2A2929282727BD
:1016700026252524232322212120201F1E1E1D1C58
:101680001C1B1B1A191918181716161515141313E5
:1016900012121111100F0F0E0E0D0D0C0C0B0A0A69
:1016A00009090808070706060505040403030202E2
:1016B00001000024F4D43050C38E20C2A24017820F
:1016C0008B7011127A910D816CD90AA861E108C75B
:1016D000586607615143061E4B5D05C145A7041AB4
:1016E000411104093D9803713931034036DB02652D
:1016F000339102D4305402802E1D02632CEE01750A
:101700002AC501B028A001102781018F2564012B73
:10171000244B01E0223401AC211F018D200D0180FA
:101720001FFC00841EED00971DDF00B81CD200E6F0
:101730001BC600201BBC00641AB200B219A8000A24
:1017400019A0006A189900D117910040178B00B5B5
:1017500016840031167E00B31579003A157300C760
:10176000146F0058146A00EE136600881363002596
:10177000135E00C7125B006C12570015125400C1B3
:1017800011510070114F0021114B00D61049008DEE
:101790001047004610440002104200C00F40008075
:1017A0000F3E00420F3C00060F3B00CB0E3800936B
:1017B0000E37005C0E3500270E3400F30D3200C1E9
:1017C0000D3100900D3000600D2E00320D2D000502
:1017D0000D2C00D90C2B00AE0C2900850C29005CC7
:1017E0000C2700350C27000E0C2600E80B2400C443
:1017F0000B2400A00B23007D0B23005A0B21003982
:101800000B2100180B2000F80A1F00D90A1E00BB8C
:101810000A1E009D0A1D00800A1D00630A1C004765
:101820000A1B002C0A1B00110A1A00F7091A00DD16
:10183000091900C4091900AB091900920917007BA6
:10184000091800630917004C091600360916002014
:101850000916000A091500F5081500E0081400CC67
:10186000081400B8081400A4081400900813007DA0
:101870000812006B081300580812004608120034C2
:10188000081100230811001208110001081100F0CE
:10189000071000E0071000D0071000C0071000B0CC
:1018A000070F00A107100091070E0083070F0074B7
:1018B000070F0065070E0057070E0049070E003B93
:1018C000070D002E070E0020070D0013070D000660
:1018D000070D00F9060C00ED060D00E0060C00D423
:1018E000060C00C8060C00BC060C00B0060C00A4D8
:1018F000060B0099060C008D060B0082060B007784
:10190000060B006C060B0061060A0057060B004C24
:10191000060A0042060A0038060A002E060A0024BB
:10192000060A001A060A001006090007060A00FD4A
:10193000050900F4050900EB050900E2050900D9D5
:10194000050900D0050900C7050900BE050900B555
:10195000050800AD050800A50509009C05080094D0
:101960000508008C050800840508007C0508007443
:101970000508006C050700650508005D05070056B1
:101980000508004E05070047050700400508003818
:10199000050700310507002A050700230507001C7D
:1019A000050600160507000F0507000805060002DA
:1019B000050700FB040600F5040700EE040600E836
:1019C000040600E2040700DB040600D5040600CF8D
:1019D000040600C9040600C3040600BD040600B7DF
:1019E000040600B1040500AC040600A6040600A02D
:1019F0000405009B04060095040500900406008A77
:101A000004050085040500800406007A04050075BD
:101A1000040500700405006B040500660405006100
:101A20000405005C04050057040500520405004D40
:101A300004050048040500430405003E0404003A80
:101A400004050035040500300404002C04050027BB
:101A5000040400230405001E0404001A04040016F4
:101A6000040500110404000D040400090405000429
:101A700004040000040400FC030400F8030400F460
:101A8000030400F0030400EC030400E8030400E492
:101A9000030400E0030400DC030400D8030400D4C2
:101AA000030400D0030400CC030400C8030300C5F2
:101AB00003030024F404D9201BC40C5C0E9804C456
:101AC000095F0265077101F405F900FB04B30048E2
:101AD000048700C10369005803550003034500BE95
:101AE000023A008402310053022A00290225000430
:101AF000022000E4011C00C8011900AF0117009882
:101B000001140084011300710110006101100051E3
:101B1000010E0043010D0036010B002B010B0020CC
:101B2000010B00150109000C01090003010800FB6D
:101B3000000800F3000800EB000700E4000600DEE8
:101B4000000600D8000600D2000600CC000500C741
:101B5000000500C2000500BD000400B9000400B586
:101B6000000400B1000400AD000400A9000400A5B9
:101B7000000300A20003009F0004009B00030098E4
:101B80000003009500020093000300900003008D05
:101B90000002008B0003008800020086000200841F
:101BA000000300810002007F0002007D0002007B34
:101BB0000002007900020077000100760002007444
:101BC00000020072000100710002006F0002006D4F
:101BD0000001006C0002006A000100690002006759
:101BE000000100660001006500010064000200625F
:101BF00000010061000100600001005F0002005D63
:101C00000001005C0001005B0001005A0001005966
:101C10000001005800010057000100560001005566
:101C20000001005400010053000000530001005265
:101C300000010051000100500001004F0001004E62
:101C40000000004E0001004D0001004C0001004B5F
:101C50000000004B0001004A00010049000100485B
:101C60000000004800010047000100460000004657
:101C70000001004500000045000100440001004350
:101C8000000000430001004200000042000100414A
:101C900000000041000100400001003F0000003F43
:101CA0000001003E0000003E0001003D0000003D3C
:101CB0000001003C0000003C0000003C0001003B33
:101CC0000000003B0001003A0000003A000100392A
:101CD0000000003900010038000000380000003822
:101CE0000001003700000037000100360000003618
:101CF000000000360001003500000035000000350E
:101D00000001003400000034000000340001003302
:101D100000000033000000330001003200000032F8
:101D200000000032000100310000003100000031ED
:101D30000001003000000030000000300001002FE2
:101D40000000002F0000002F0000002F0001002ED7
:101D50000000002E0000002E0001002D0000002DCC
:101D60000000002D0000002D0001002C0000002CC0
:101D70000000002C0000002C0001002B0000002BB4
:101D80000000002B0000002B0001002A0000002AA8
:101D90000000002A0000002A00010029000000299C
:101DA000000000290000002900000029000100288F
:101DB0000000002800000028000000280000002883
:101DC0000001002700000027000000270000002776
:101DD0000000002700010026000000260000002669
:101DE000000000260000002600010025000000255C
:101DF000000000250000002500000025000000254F
:101E00000001002400000024000000240000002441
:101E10000000002400010023000000230000002334
:101E20000000002300000023000000230000002326
:101E30000001002200000022000000220000002219
:101E4000000000220000002200010021000000210B
:101E500000000021000000210000002100000021FE
:101E600000000021000100200000002000000020F0
:101E700000000020000000200000002000000020E2
:101E8000000000200001001F0000001F0000001FD4
:101E90000000001F0000001F0000001F0000001FC6
:101EA0000001001E0000001E0000001E0000001EB9
:101EB000000000393000003325000087190000B011
:101EC0000F0000DB080000BD040000740200003FAA
:101ED0000100006265640A002C2073797374656DDB
:101EE0002073746F70706564212048656174657239
:101EF0005F49443A20004265642068656174696EF8
:101F000067206661696C65640048656174696E6725
:101F1000206661696C6564004531204865617469BB
:101F20006E67206661696C65640048656174696EFE
:101F300067206661696C6564001000C90210012C9D
:101F4000014001220170011801B0010E01F00104ED
:101F5000015002FA00B002F0003003E600D003DCCA
:101F6000009004D2007005C800A006BE000008B4AE
:101F700000B009AA00D00BA000600E960060118C82
:101F8000000015820020197800C01D6E00A0226498
:101F900000B0275A00902C500000314600E0343C3D
:101FA0000010383200903A2800603C1E00A03D141A
:101FB00000803E0A00203F00004531204572723A01
:101FC000204D415854454D50004572723A204D41C4
:101FD0005854454D5020424544004D415854454DBC
:101FE00050207472696767657265640045312045E9
:101FF00072723A204D494E54454D50004572723A26
:10200000204D494E54454D5020424544004D494EC7
:1020100054454D5020747269676765726564004D60
:10202000383420582059204500202F002042403AC3
:102030000020403A0025753A2530327500253032AF
:10204000753A253032750025756420253032753A91
:1020500025303275005A0059005800092000000050
:10206000000000000000000000003FFFF000000042
:1020700000000000000000000038007000000000B8
:10208000000000000000000030FC300000000000F4
:102090000000000000000020FC1000000000000014
:1020A0000000000000002078100000000000000088
:1020B00000000000002030100000000000000000C0
:1020C000000000002C00D03FC00000000000000015
:1020D0002082002E31D07FE00000000000000010C0
:1020E00041002F7BD07FE000000000000000104185
:1020F000002F7BD07FE00000000000000020820065
:102100002E31D03FC0000000000000004104002C30
:1021100000D03FC000000000000000820800203016
:10212000107FE0000000000000008208002078100E
:102130007FE00000000000000041040020FC107F50
:10214000E00000000000000020820030FC301F8012
:10215000000000000000000000003800700F0000C8
:10216000000000000000FFFFC03FFFF0060000007D
:102170000000000000FFFFC00000000000000000A1
:10218000000000000000003FFFF000000000000021
:102190000000000000003800700000000000000097
:1021A0000000000000318630000000000000000048
:1021B0000000000023871000000000000000000065
:1021C00000000027879000000000000000000000D1
:1021D00000002F87D0000000000000000000000079
:1021E000002F03D03FC0000000000000002082004C
:1021F0002030107FE00000000000000010410020AF
:1022000078107FE0000000000000001041002078FE
:10221000107FE0000000000000002082002030104D
:102220003FC0000000000000004104002F03D03F29
:10223000C0000000000000008208002F87D07FE06F
:10224000000000000000008208002787907FE00067
:102250000000000000004104002387107FE0000020
:1022600000000000002082003186301F8000000046
:10227000000000000000003800700F0000000000A7
:10228000000000FFFFC03FFFF0060000000000005C
:102290000000FFFFC00000005448334420424C546B
:1022A0006F7563682052656164792E005072696EA3
:1022B00074696E672E2E2E005072696E74207061E4
:1022C0007573656400436D643A2053746F770043FF
:1022D0006D643A204465706C6F7900436D643A20F8
:1022E00053656C662D5465737400436D643A2052D7
:1022F0006573657400436D643A2053572D4D6F64C8
:1023000065004D61696E004D313235004D3234004B
:102310005072696E742061626F7274656400496EF8
:1023200069742E2053442063617264004D32310081
:102330004E6F2053442063617264004368616E678E
:10234000652053442063617264004D323100507245
:10235000696E742066726F6D2053440053746F7001
:10236000207072696E7400526573756D65207072AD
:10237000696E740041626F7574205072696E746585
:1023800072005061757365207072696E7400436FDE
:102390006E74726F6C005072657061726500547576
:1023A0006E6500496E666F2073637265656E000E20
:1023B000000E000E000E000E000E000E000E007F3C
:1023C000C03F801F000E00040004000E001F003FED
:1023D000807FC00E000E000E000E000E000E000EDC
:1023E000000E0003F8000FFE001E0F003807003833
:1023F0000380700380700FE07007C070038070016D
:10240000007000003800003807001E0F000FFE00AB
:1024100003F80000FE0003FF800783C00E01C00E1A
:1024200000E01C00E07F00E03E00E01C00E008004F
:10243000E00000E00001C00E01C00F078007FF00B0
:1024400001FC00FFFFFF7F80FFC0FFC0FFC07F8057
:102450007F80FFC0FFC0FFC03F001E000C00507215
:102460006F6265205A204F66667365740043686129
:102470006E67652066696C616D656E7400436861A6
:102480006E67652066696C616D656E74004D3630EF
:10249000302042300050726F6265205A204F6666CD
:1024A00073657400466C6F7700466C6F7700466109
:1024B0006E2073706565640046616E20737065659B
:1024C000640042656400426564004E6F7A7A6C6510
:1024D000004E6F7A7A6C65005370656564005370C6
:1024E000656564004D61696E005072656865617470
:1024F00020504C4120456E640050726568656174DF
:1025000020504C41204265640050726568656174DA
:1025100020504C41005072657061726500507265C8
:1025200068656174205045544720456E64005072C0
:1025300065686561742050455447204265640050C9
:10254000726568656174205045544700507265702B
:10255000617265004D343238004D323830205030D1
:10256000205331363000436D643A2053656C662D3C
:1025700054657374004D323830205030205331325E
:1025800030005072656865617420504554470050B2
:1025900072656865617420504C4100436F6F6C64D4
:1025A0006F776E00436D643A205265736574004323
:1025B00068616E67652066696C616D656E74004365
:1025C00068616E67652066696C616D656E74004D4B
:1025D0003630302042300044697361626C6520738C
:1025E00074657070657273004D38340053657420E3
:1025F000686F6D65206F666673657473004F6666FD
:10260000004F6E2000426564204C6576656C696EF3
:1026100067004C6576656C20626564004732380A55
:102620004732390052756E204D343820546573742A
:10263000004732380A4D34382050313000486F6D31
:1026400065205A00473238205A00486F6D6520597E
:1026500000473238205900486F6D652058004732D6
:10266000382058004175746F20686F6D65004732DF
:1026700038004D6F76652061786973004D61696E31
:10268000004D6F76652058004D6F76652059004DDE
:102690006F7665205A004578747275646572004DD6
:1026A0006F766520302E316D6D004D6F766520316F
:1026B0006D6D004D6F76652031306D6D004D6F761C
:1026C000652061786973004578747275646572007D
:1026D0004D6F7665205A004D6F76652059004D6F1D
:1026E00076652058004578747275646572004D6F88
:1026F0007665205A004D6F76652059004D6F7665DE
:10270000205800507265706172650052657365747F
:1027100020454550524F4D00436F6E74726F6C00F0
:10272000526573657420454550524F4D0053746F88
:1027300072652073657474696E677300424C546FE0
:102740007563680046696C616D656E74004D6F74E9
:10275000696F6E0054656D706572617475726500A5
:102760004D61696E004D3330332055312045256968
:102770002053256900507265686561742050455486
:102780004720636F6E660050726568656174205003
:102790004C4120636F6E6600504944204175746F50
:1027A00074756E6500504944204175746F74756E80
:1027B00065005049442D44005049442D440050497F
:1027C000442D49005049442D49005049442D5000A2
:1027D0005049442D500046616E2073706565640059
:1027E00046616E20737065656400426564004265F1
:1027F00064004E6F7A7A6C65004E6F7A7A6C650071
:10280000436F6E74726F6C0053746F7265207365E2
:102810007474696E67730042656400426564004EBB
:102820006F7A7A6C65004E6F7A7A6C650046616EDD
:102830002073706565640046616E20737065656421
:102840000054656D706572617475726500565472DE
:102850006176206D696E005654726176206D696EE6
:1028600000566D696E00566D696E00566D61782078
:102870004500566D6178204500566D6178205A00FC
:10288000566D6178205A00566D6178205900566D5A
:102890006178205900566D6178205800566D617836
:1028A0002058004D6F74696F6E00416D617820454E
:1028B00000416D6178204500416D6178205A0041EA
:1028C0006D6178205A00416D6178205900416D6139
:1028D00078205900416D6178205800416D61782061
:1028E0005800412D74726176656C00412D747261DF
:1028F00076656C00412D7265747261637400412DC0
:102900007265747261637400416363656C00416356
:1029100063656C004D6F74696F6E004A756E637409
:10292000696F6E20446576004A756E6374696F6ED8
:1029300020446576004D6F74696F6E004573746551
:1029400070732F6D6D004573746570732F6D6D001E
:102950005A73746570732F6D6D005A73746570735C
:102960002F6D6D005973746570732F6D6D00597301
:10297000746570732F6D6D005873746570732F6D6F
:102980006D005873746570732F6D6D004D6F7469B1
:102990006F6E0053746570732F6D6D004A65726BB6
:1029A00000416363656C65726174696F6E005665A2
:1029B0006C6F636974790050726F6265205A204FA2
:1029C000666673657400436F6E74726F6C004C6F53
:1029D0006164206D6D004C6F6164206D6D00556EFB
:1029E0006C6F6164206D6D00556E6C6F6164206D5D
:1029F0006D00436F6E74726F6C0043616E6E6F7426
:102A000020656E746572207375626469723A200085
:102A1000022E2E000152656672657368004D616971
:102A20006E004D61782054656D703A20313230006F
:102A30004D696E2054656D703A20350054426564CE
:102A40003A4154432031303447542D32004D61789F
:102A50002054656D703A20333030004D696E20543B
:102A6000656D703A20350054303A2041544320318E
:102A7000303447542D32005053553A2047656E6527
:102A80007269630050726F746F636F6C3A20312EFD
:102A90003000426175643A203131353230300043C4
:102AA000522D3130530042696C696E656172204C61
:102AB0006576656C696E67004578747275646572D9
:102AC000733A2031005448334453747564696F2E4F
:102AD000636F6D005448334420424C546F756368F3
:102AE0000000544833442055312E52322E313700E5
:102AF0004D61726C696E00546865726D6973746FB4
:102B0000727300426F61726420496E666F0050728A
:102B1000696E74657220496E666F004D61696E0062
:102B20004D37303220542564004D3630302042304D
:102B300020542564004D373032203B2564004D374A
:102B4000303120542564004368616E6765206669F2
:102B50006C616D656E7400507265686561742050BB
:102B6000455447005072656865617420504C4100BF
:102B70004368616E67652066696C616D656E74009F
:102B80005052494E542050415553454400554E4CE7
:102B90004F41442046494C414D454E54004C4F4115
:102BA000442046494C414D454E540050757267656E
:102BB000206D6F726500436F6E74696E75650052AB
:102BC0004553554D45204F5054494F4E533A0020E0
:102BD000204E6F7A7A6C653A20006368616E676593
:102BE000006F66207468652066696C616D656E743F
:102BF000005761697420666F72207374617274008B
:102C000020204E6F7A7A6C653A2000200066696C4D
:102C1000616D656E7420756E6C6F616400576169DB
:102C20007420666F720020204E6F7A7A6C653A20AD
:102C3000002000506C6561736520776169742E2EE9
:102C40002E0048656174696E67206E6F7A7A6C65D4
:102C50000020204E6F7A7A6C653A2000200068656B
:102C60006174206E6F7A7A6C652E00507265737392
:102C700020627574746F6E20746F0020204E6F7A1E
:102C80007A6C653A2000746F20636F6E74696E759C
:102C9000652E2E2E00616E64207072657373206243
:102CA0007574746F6E00496E736572742066696C1A
:102CB000616D656E740020204E6F7A7A6C653A20E3
:102CC00000200066696C616D656E74206C6F6164D4
:102CD000005761697420666F720020204E6F7A7A07
:102CE0006C653A2000200066696C616D656E742029
:102CF0007075726765005761697420666F72007441
:102D00006F20726573756D65005761697420666F19
:102D100072207072696E7400000021002400270088
:102D20002A002D00300033000101000004010701DA
:102D30000A0100002200250028002B002E0031008F
:102D4000340002010000050108010B010000200011
:102D50002300260029002C002F0032000001000073
:102D6000030106010901050505050705080808080E
:102D7000020202020A0A0808040404040101010113
:102D8000010101010303030303030303040707070E
:102D90000C0C0C0C0C0C0C0C0202020206060606B3
:102DA000060606060B0B0B0B0B0B0B0B0102102080
:102DB0002008081020401020408002010201080471
:102DC0000201010204081020408080402010080405
:102DD000020180040201804020100804020108045E
:102DE00002010102040810204080010204081020A2
:102DF000408000000A0B02090C0D0E0807030401B5
:102E000000000000000000000000000000000000C2
:102E1000000000000000000000000000000012118F
:102E20001000000000000000000000000000000092
:102E30000000000000000000020000000000000090
:102E40000000000000000000000000000000000082
:102E50000000000000000000000000000000000072
:102E60000000000000000000000000000000000062
:102E700003C000000000000000000000000000008F
:102E800003C000000000000000000000000000007F
:102E900003C000000000000000000000000000006F
:102EA00003C000000000000000000000000000005F
:102EB00003C000000000000000000000000000004F
:102EC00003C000000000000000000000000000003F
:102ED00003C000000000000000000000000000002F
:102EE00003C000000000000000000000000000001F
:102EF00007E00000000000000000000000000000EB
:102F00001FF80000000000000000000000000000AA
:102F10007FFE000000000000000000000000000034
:102F2000FFFF0000000000000000000000000003A0
:102F3000FFFFC000000000000000000000000007CC
:102F4000FC3FE00000000000000000000000000F57
:102F5000F81FF00000000000000000000000000F5B
:102F6000F00FF00000000000000000000000000F63
:102F7000FC3FF00000000000000000000000000F17
:102F8000FF7FF00000000000000000000000000FC4
:102F9000FFFFF00000000000000000000000000F34
:102FA000FFFFF00000000000000000000000000F24
:102FB0009FF9F00000000000000000000000000F7A
:102FC0008FF1F00000000000000000000000000F82
:102FD00083C1F00000000000000000000000000FAE
:102FE00083C1F00000000000000000000000000F9E
:102FF00083C1F00000000000000000000000001F7E
:10300000C3C3F80000000000000000000000007FC3
:10301000F3CFFE000000000000000000000000FFF1
:10302000FBDFFF000000000000000000000003FFC5
:10303000FFFFFFC0000000000000000000000FFDC7
:10304000FFFFBFF0000000000000000000000FF8CC
:10305000FFFF1FF0000000000000000000000FE074
:103060003FFC07F0000000000000000000000F809F
:103070000FF001F0000000000000000000000F0051
:1030800007E000F000000000000000000000000069
:103090000000000000000000000000000000000030
:1030A0000000000000000000000000000000000020
:1030B0000000000000000000000000000000000010
:1030C0000000000000000000000000000000000000
:1030D00000000000000000000000000000000000F0
:1030E00000000000000000000000000000000000E0
:1030F000000000000000000000000000001FFFFCB6
:103100001F1FE3FFC000000000000000001FFFFCC5
:103110001F3FF3FFE000000000000000001FFFFC65
:103120001F3FFBFFF000000000000000001FFFFC3D
:103130001F7CFBFFF8000000000000000001F07C95
:103140001F7C7BE1F8000000000000000001F07C23
:103150001F787BE0F8000000000000000001F07F15
:10316000FF03FBE078000000000000000001F07F9A
:10317000FF03F3E078000000000000000001F07F92
:10318000FF03FBE078000000000000000001F07F7A
:10319000FF03FBE078000000000000000001F07C6D
:1031A0001F007BE078000000000000000001F07CC0
:1031B0001F787BE0F8000000000000000001F07CB8
:1031C0001F787BE1F8000000000000000001F07CA7
:1031D0001F7CFBFFF0000000000000000001F07CFD
:1031E0001F7FFBFFF0000000000000000001F07CEA
:1031F0001F3FF3FFE0000000000000000001F07C32
:103200001F1FE3FF8000000000000000000000001E
:1032100000000000000000000000000000000000AE
:10322000000000000000000000000000000000009E
:103230000000000000000000001FFFFFFFFFFFFF75
:10324000600000000001FF400000000000FF80005F
:10325000000000007F83CF00000C303F87FF80001C
:103260000C301F867980000C000F8C30C7838C30A7
:10327000E78C30CFC7CC31F38C30DCECEC33B98C3D
:1032800030D86C6C33198C30D06C0C33198C30D82E
:103290006C0C33198C30DC6C0E3B198C30CF7C07F6
:1032A0009F198C30C77C038F19400000000000027A
:1032B000600000000000061FFFFFFFFFFFF8202056
:1032C000506C616E6E6572427566666572427974A5
:1032D00065733A20002046726565204D656D6F72FA
:1032E000793A2000436F6D70696C65643A204465DB
:1032F0006320333120323031390A00207C2041757F
:1033000074686F723A202854483344290A00002018
:103310004C61737420557064617465643A20005484
:103320004833442055312E52322E31370A004D6138
:10333000726C696E0020536F6674776172652052FB
:10334000657365740A00205761746368646F672051
:1033500052657365740A002042726F776E206F7534
:10336000742052657365740A002045787465726E26
:10337000616C2052657365740A00506F77657255F1
:10338000700A0073746172740A006175746F256944
:103390002E67006572726F722077726974696E674A
:1033A00020746F2066696C650A00456E6473746FE3
:1033B000707320256320256320256320256300206A
:1033C0005A3A0020593A0020583A00656E647374E6
:1033D0006F7073206869743A2000446F6E652073C3
:1033E0006176696E672066696C652E0A004D323918
:1033F000004D3234004D323320257300556E6B6E14
:103400006F776E20636F6D6D616E643A20220049A4
:103410006E736572742066696C616D656E7420618F
:103420006E6420707265737320627574746F6E20A1
:10343000286F72204D313038290A00486F74656E4C
:103440006420746F6F20636F6C640A0050726F6247
:10345000696E67206661696C65640A0050726F620C
:10346000696E67206661696C656400205A3A2000C5
:1034700020593A200042656420583A2000534420E5
:1034800063617264206F6B0A006F70656E526F6FBC
:1034900074206661696C65640A00766F6C756D6591
:1034A0002E696E6974206661696C65640A00534414
:1034B00020696E6974206661696C0A00486F6D65E9
:1034C0002025732573257320666972737400206646
:1034D000697273740A005A0059005800486F6D658C
:1034E000200057726974696E6720746F2066696C7A
:1034F000653A20006F70656E206661696C65642CAA
:103500002046696C653A20006F70656E20666169BF
:103510006C65642C2046696C653A200046696C65D0
:103520002073656C65637465640A002053697A656D
:103530003A200046696C65206F70656E65643A20BC
:10354000002066696C653A2000646F696E670066EA
:1035500072657368004E6F772000454E44205355C6
:1035600042524F5554494E450A002220706F730055
:103570002220706172656E743A2200535542524F98
:103580005554494E452043414C4C20746172676547
:10359000743A22004B494C4C45442E2000747279F9
:1035A000696E6720746F2063616C6C207375622D87
:1035B00067636F64652066696C65732077697468FA
:1035C00020746F6F206D616E79206C6576656C7309
:1035D0002E204D4158206C6576656C2069733A0049
:1035E0004572726F723A006F70656E206661696C29
:1035F00065642C2046696C653A200043616E6E6FED
:1036000074206F70656E2073756264697220006546
:1036100063686F3A00453120544845524D414C2073
:1036200052554E4157415900424544205448455255
:103630004D414C2052554E415741590054686572D6
:103640006D616C2052756E6177617900000609002A
:10365000FE0701920321207FFF07FF07FF00000004
:10366000060000010707060200808080808000803D
:10367000030202060105A0A005070706000050503E
:10368000F850F850500507070600002078A0702871
:10369000F020050707060000C0C810204098180554
:1036A00007070600006090A040A890680203030688
:1036B0000104C0408003070706010020408080808D
:1036C000402003070706010080402020204080059D
:1036D000050506000120A870A820050505060001C3
:1036E0002020F820200203030602FFC040800501CD
:1036F00001060003F8020202060200C0C00505052B
:1037000006000108102040800507070600007088A9
:10371000888888887003070706010040C040404041
:1037200040E0050707060000708808708080F805F3
:103730000707060000F81020100808F00507070624
:10374000000010305090F81010050707060000F830
:1037500080F008088870050707060000708080F078
:10376000888870050707060000F808102020202030
:1037700005070706000070888870888870050707AD
:1037800006000070888878080870020505060200A7
:10379000C0C000C0C00206060602FFC0C000C04094
:1037A0008004070706000010204080402010050319
:1037B00003060002F800F804070706010080402015
:1037C00010204080050707060000708808102000C0
:1037D0002005070706000070880868A8A87005077C
:1037E00007060000708888F88888880507070600A3
:1037F00000F08888F08888F00507070600007088C8
:103800008080808870050707060000F08888888817
:1038100088F0050707060000F88080F08080F80532
:103820000707060000F88080F08080800507070603
:103830000000708880B88888700507070600008837
:103840008888F888888801070706020080808080C1
:103850008080800507070600003810101010906067
:103860000507070600008890A0C0A09088050707FC
:10387000060000808080808080F805070706000031
:1038800088D8A8888888880507070600008888C81F
:10389000A8988888050707060000708888888888A7
:1038A00070050707060000F08888F0808080050713
:1038B0000706000070888888A8906805070706003A
:1038C00000F08888F0A0908805070706000078803F
:1038D00080700808F0050707060000F82020202067
:1038E00020200507070600008888888888887005DA
:1038F0000707060000888888888850200507070683
:1039000000008888888888A8500507070600008876
:10391000885020508888050707060000888888504E
:10392000202020050707060000F80810204080F836
:10393000030707060100E08080808080E005050520
:103940000600018040201008030707060100E02060
:1039500020202020E00503030600042050880501F4
:1039600001060000F8020202060205804005050576
:103970000600007008788878050707060000808038
:10398000B0C88888F0050505060000708080887042
:103990000507070600000808689888887805050567
:1039A0000600007088F880700507070600003048A0
:1039B000E0404040400506060600FF708888780811
:1039C000700507070600008080B0C8888888010756
:1039D00007060200800080808080800308080601BE
:1039E000FF200020202020A04004070706000080C0
:1039F0008090A0C0A090030707060100C04040408F
:103A00004040E0050505060000D0A8A8A8A80505C7
:103A100005060000B0C88888880505050600007006
:103A2000888888700506060600FFF08888F0808088
:103A30000506060600FF788888780808050505064B
:103A40000000B0C880808005050506000070807009
:103A500008F00407070600004040E0404040300501
:103A60000505060000888888986805050506000099
:103A700088888850200505050600008888A8A85079
:103A8000050505060000885020508805060606003A
:103A9000FF888888780870050505060000F8102062
:103AA00040F8030707060100204040804040200105
:103AB0000707060200808080808080800307070659
:103AC000010080404020404080050202060002685C
:103AD0009000000006000000060900FE0000000043
:103AE0000001090008FE000005080806000040F07B
:103AF000C88888987810050808060000C0F88888EB
:103B0000888888F80505050600012030F830200572
:103B100008080600002070F820202020E005090990
:103B20000600FF2070A8A8B888887020050909063B
:103B300000FFE080C0B0A828302828050909060049
:103B4000FFF8A88888888888A8F8050A0A0600FE71
:103B5000205050505088A8A8887003030306000323
:103B600040A04000AE00A60011241FBECFEFD1E25E
:103B7000DEBFCDBF00E00CBF13E0A0E0B2E0EEEC92
:103B8000F4E502E00BBF02C007900D92A239B10725
:103B9000D9F726E1A2E9B3E001C01D92A939B20725
:103BA000E1F71DE1C3EBDDE100E006C0219701096B
:103BB000802FFE010F94C829C23BD10780E008077F
:103BC000A9F70F942D160D94562A0C940000CF924D
:103BD000DF92EF92FF92CF93DF93EC01C090670BDF
:103BE000D090680BE090690BF0906A0BA7019601EA
:103BF000688179818A819B810F94402087FF04C06E
:103C0000C882D982EA82FB82C0906B0BD0906C0B89
:103C1000E0906D0BF0906E0BA70196016C817D8199
:103C20008E819F810F94402087FF04C0CC82DD826B
:103C3000EE82FF82C0902402D0902502E0902602FE
:103C4000F0902702A7019601688179818A819B8182
:103C50000F94EE28181624F4C882D982EA82FB82D7
:103C6000C0902802D0902902E0902A02F0902B0206
:103C7000A70196016C817D818E819F810F94EE2832
:103C8000181624F4CC82DD82EE82FF82C0902C02D2
:103C9000D0902D02E0902E02F0902F02A701960105
:103CA000688579858A859B850F94EE28181624F4FB
:103CB000C886D986EA86FB86DF91CF91FF90EF9088
:103CC000DF90CF900895CF92DF92EF92FF926091B4
:103CD000620B7091630B072E000C880B990B0F94ED
:103CE00046206B017C012DEB37E346E855EB0F9442
:103CF000EE2887FD0BC02DEB37E346E855E3C701FF
:103D0000B6010F94402018160CF043C0A70196018D
:103D100060E070E080E89FE30F94A4276093FA04CA
:103D20007093FB048093FC049093FD046091640BFA
:103D30007091650B072E000C880B990B0F94462091
:103D40006B017C012DEB37E346E855EB0F94EE2831
:103D500087FD0AC02DEB37E346E855E3C701B601FE
:103D60000F9440201816CCF4A701960160E070E093
:103D700080E89FE30F94A4276093FE047093FF04F0
:103D80008093000590930105FF90EF90DF90CF9016
:103D9000089560E070E0CB01C1CF60E070E0CB013E
:103DA000EBCF8091230490912404A0912504B0913D
:103DB00026048093530290935402A0935502B0932B
:103DC00056028091210490912204909323028093C3
:103DD000220208958091530290915402A0915502BD
:103DE000B09156028093230490932404A093250459
:103DF000B093260480912202909123029093220492
:103E00008093210484E690E0909323028093220221
:103E100008950F931F93CF93DF9394E0899FE00160
:103E200011248E010051114FFE01EA5FF24FDE01B5
:103E3000A35DBA4F2D913D914D915C91608171814F
:103E4000828193810F94C826F801608371838283F5
:103E50009383FE01E15BFB4F85919591A591B49110
:103E6000FE01E959F44F80839183A283B383FE015D
:103E7000E55AFB4F85919591A591B491CC5DDD4FAD
:103E800088839983AA83BB83DF91CF911F910F9180
:103E900008959091160DE92FF0E0EE5EF24F8083C9
:103EA0009F5F943040F49093160D8091990E8F5F30
:103EB0008093990E08951092160DF7CF2FEB280FCF
:103EC0002A3108F042C0E22FF0E080914B0490913B
:103ED0004C04A0914D04B0914E0404C0B695A79532
:103EE000979587952A95D2F780FD02C08170089535
:103EF000EF5CFB4FE081EE2329F18091BE0E9091A3
:103F0000BF0EE80FF92FF11D808190ED980F9A30C8
:103F100030F08E3251F4818180538A3098F4F093DE
:103F2000A003E0939F0381E008958D3211F08B325E
:103F300049F4818190ED980F9A3088F38E3211F414
:103F40008281EACFF0E0E0E0EACF80E00895B6DFDA
:103F5000882341F081E020919F033091A003232B1F
:103F600009F480E00895089590E080E0089580E1EC
:103F7000E0E0FFE0A8ECBEE001900D928A95E1F749
:103F8000089580E1E8ECFEE0A0E0BFE001900D9232
:103F90008A95E1F708958091D4049091D5042FEF8C
:103FA0003FEF981751F0E92FF0E0EC5AFB4F2081DA
:103FB00030E09F5F9F779093D504C90108958F9259
:103FC0009F92AF92BF92CF92DF92EF92FF920F93A8
:103FD000CF93DF931F92CDB7DEB76C017B01490110
:103FE00080913E055B01A40EB51E8823A1F0F60169
:103FF00080819181480F591F518340830F90DF9139
:10400000CF910F91FF90EF90DF90CF90BF90AF9046
:104010009F908F900895F601808191810F9445269D
:10402000898390913F05992311F0002311F0F70146
:104030008083BE016F5F7F4FC4010E940BEAF601CF
:1040400080819181019691838083FFEFEF1AFF0AAF
:10405000EA14FB0401F7D2CF2F923F924F925F9266
:104060006F927F928F929F92AF92BF92CF92DF9288
:10407000EF92FF920F931F93CF93DF9300D000D066
:10408000CDB7DEB79A8389830E94A0F1A981BA8156
:104090001696CD90DD90ED90FC901997C114D10447
:1040A000E104F10409F010C31C962C911C97222303
:1040B00009F44DC01A96EC911A9721501C962C9336
:1040C0001C9721E02E0F1A962C931A971D963C915F
:1040D0001D97231302C01A961C92F0E03196EE0F42
:1040E000FF1FEE0FFF1F29813A81E20FF31FC284E9
:1040F000D384E484F584D9011296CD92DD92ED92B9
:10410000FC9215976C0D7D1D811D911DF901668333
:1041100077838087918784819581892BC1F0FFB750
:10412000FD83F894A981BA8112962D903C90139743
:104130002101712C612C14960D911C9180913C02EF
:104140008532F1F08F3F09F497C0FD81FFBF2696BD
:104150000FB6F894DEBF0FBECDBFDF91CF911F9198
:104160000F91FF90EF90DF90CF90BF90AF909F9016
:104170008F907F906F905F904F903F902F90089519
:10418000E8E3FEE2B491BE83B7FDDFCF61E085E2F4
:104190000E94BEF09E81992321F0AE81A23009F0E9
:1041A000BEC14801B12CA12C60E072E18AE790E029
:1041B000A50198010F948C2629833A834B835C8355
:1041C00069017A01B1E0CB1AD108E108F108EFEFFB
:1041D000CE16D104E104F10409F00CF470C160E4DE
:1041E00072E48FE090E0A50198010F948C2669019C
:1041F0007A01F1E0CF1AD108E108F1082E812230CE
:1042000009F011C182E03FEFC316D104E104F104CB
:1042100009F00CF4B8C260E970ED83E090E0A5010C
:1042200098010F948C2669017A0181E0C81AD1089F
:10423000E108F10883E09FEFC916D104E104F1041D
:1042400009F00CF4A0C268E478EE81E090E0A501EA
:1042500098010F948C2669017A0181E0C81AD1086F
:10426000E108F1089FEFC916D104E104F10411F04F
:104270000CF0FDC084E087C285E280933C02E8E355
:10428000FEE224912E83822F2F3F09F45ECF22304D
:1042900009F469C060F4222381F1213009F445C09A
:1042A00087FD53CF61E085E20E94BEF076CF3E816C
:1042B000343009F49AC008F478C0353089F7109288
:1042C00020011092210180912101886080932101B9
:1042D00080912101816080932101EBE8FDE2E4916E
:1042E000F0E0EE0FFF1FEE5CF24D85919491E1ED51
:1042F000FDE2E491E093A10349CF14BC15BC84B561
:10430000826084BD85B5816085BDEBE8FDE2E49106
:10431000F0E0EE0FFF1FEE5CF24D85919491E1ED20
:10432000FDE2E491E093A50331CF1092800010925A
:10433000810080918100886080938100809181005C
:10434000816080938100EBE8FDE2E491F0E0EE0F04
:10435000FF1FEE5CF24D85919491E1EDFDE2E49159
:10436000E093A40313CF1092B0001092B10080919B
:10437000B00082608093B0008091B1008160809332
:10438000B100EBE8FDE2E491F0E0EE0FFF1FEE5C20
:10439000F24D859194919093F50C8093F40CE1ED9E
:1043A000FDE2E491E093F60CF1CE109290001092B1
:1043B000910080919100886080939100809191009C
:1043C000816080939100EBE8FDE2E491F0E0EE0F74
:1043D000FF1FEE5CF24D85919491E1EDFDE2E491D9
:1043E000E093A30383E08E83D1CE1092A0001092BD
:1043F000A1008091A10088608093A1008091A1001C
:1044000081608093A100EBE8FDE2E491F0E0EE0F23
:10441000FF1FEE5CF24D85919491E1EDFDE2E49198
:10442000E093A203B3CEAFEFCA16D104E104F104C6
:1044300009F00CF472C068E478EE81E090E0A50128
:1044400098010F948C2669017A01B1E0CB1AD1084A
:10445000E108F108EE81EE2309F461C1EFEFCE1619
:10446000D104E104F10411F00CF062C103CF64E265
:1044700074EF80E090E0A50194010F948C2669010F
:104480007A01F1E0CF1AD108E108F10885E02FEFB9
:10449000C216D104E104F10409F008F474C162E128
:1044A0007AE780E090E0A50194010F948C266901E1
:1044B0007A01A1E0CA1AD108E108F1084BC181E0F4
:1044C000AE81A11160C195B5987F892B85BD2FEF75
:1044D0003FEFA90145284628472809F059C0BE8169
:1044E000B23009F4E1C00CF0C8C0BB2309F4CDC060
:1044F000B13009F02ACED0928900C0928800209372
:10450000B2033093B3034093B4035093B503809147
:104510006F00826080936F0018CE82E0D1CFB12C03
:10452000A12C60E072E18AE790E0A50198010F9468
:104530008C2669017A01B1E0CB1AD108E108F108B3
:1045400091E0C114D104E1E0EE06F10484F068E4E6
:1045500078EE81E090E0A50198010F948C26690126
:104560007A01F1E0CF1AD108E108F10893E02E8139
:104570002130D9F480918100887F892B809381003C
:104580002FEF3FEFA90145284628472809F4B3CF6C
:104590009801220F331FD1010F94B82628EE33E083
:1045A00040E050E00F946A269ACF3E813330F9F410
:1045B00080919100887F892B809391002FEF3FEFAE
:1045C000A90145284628472819F7D0929900C0929A
:1045D00098002093AE033093AF034093B003509301
:1045E000B10380917100826080937100AECD8E81A5
:1045F0008430F9F48091A100887F892B8093A100F9
:104600002FEF3FEFA90145284628472809F6D09209
:10461000A900C092A8002093AA033093AB03409353
:10462000AC035093AD03809172008260809372005E
:104630008CCDAE81A53009F04ACF80912101887FD1
:10464000892B809321012FEF3FEFA90145284628B0
:10465000472809F09DCFD0922901C09228012093CC
:10466000A6033093A7034093A8035093A903809116
:10467000730082608093730068CDEE81E43039F27C
:104680000CF4A3CFE53039F360CDC7BC2093B6035B
:104690003093B7034093B8035093B90380916E00F1
:1046A000826080936E0051CDC092B3002093F70CCE
:1046B0003093F80C4093F90C5093FA0C80917000F1
:1046C00082608093700041CD6C197D098E099F092D
:1046D00097FD3DCD4098A981BA8116961D921D92F5
:1046E0001D921C92199733CD84E0EFEFCE16D104C2
:1046F000E104F10409F008F4E6CEC980DA80EB8029
:10470000FC809AE0F594E794D794C7949A95D1F7F2
:10471000B1E0CB1AD108E108F10885E0D4CE83E0FE
:10472000BFEFCB16D104E104F10409F00CF4CBCEB9
:1047300062E17AE780E090E0A50194010F948C2675
:1047400069017A0181E0C81AD108E108F1089E8167
:10475000992351F286E02FEFC216D104E104F1044F
:1047600091F088F0C980DA80EB80FC808AE0F594D3
:10477000E794D794C7948A95D1F7F1E0CF1AD1087E
:10478000E108F10887E09091B100987F892B809330
:10479000B1009DCECF92DF92EF920F931F93CF93F4
:1047A000DF93CDB7DEB760970FB6F894DEBF0FBECC
:1047B000CDBFE090E80EE0E0FFE080859185A28526
:1047C000B385448155816681778100811181228181
:1047D000338109831A832B833C834D835E836F83EC
:1047E000788789879A87AB87BC871D861E861F8638
:1047F000188AAE01475F5F4FBE016B5F7F4FCE01EE
:1048000001960E9473D7CE010D966C0103E512E06C
:104810002CE03FE0AE01475F5F4FBE016B5F7F4F13
:104820000C970E944BC760960FB6F894DEBF0FBE80
:10483000CDBFDF91CF911F910F91EF90DF90CF907F
:104840000895CF93DF9380E00E94EFD6C2E0D5E0D9
:10485000688379838A839B8381E00E94EFD66C838F
:104860007D838E839F8382E00E94EFD6688779875D
:104870008A879B87DF91CF91089580919F039091C4
:10488000A003009731F04AE050E070E060E00D9442
:104890005B1D60E070E0CB010895EFDF97FD0AC07B
:1048A000ECDF6F3F71058105910509F02CF4E5DF20
:1048B000862F089580E008958FEF089580919F03DB
:1048C0009091A003892B39F0E8DF91E0811101C0BC
:1048D00090E0892F089591E0FCCF80919F03909103
:1048E000A003009731F04AE050E070E060E00D94E2
:1048F000871E60E070E0CB0108950F931F93CF9364
:1049000080919F039091A0030097E9F0FC018F0133
:10491000C1912C2F2F7D81F0C53411F0C536B9F728
:10492000F801108270E060E00F94051CF801C0836C
:10493000CF911F910F91089570E060E0CF911F918A
:104940000F910D94051C60E070E0CB01F1CFCF9288
:10495000DF92EF92FF920F931F93CF93DF9334EF89
:10496000C32E32E0D32E48ECE42E4EE0F42E00E0CD
:104970001FE0D0E0C0E0F60181916F019FDA88234B
:1049800009F454C0BADFFE01E45DFB4F2081211120
:1049900004C0209130042223C9F1F8012081318123
:1049A000428153810F94C826F7016083718382830B
:1049B00093832196F4E0EF0EF11C0C5F1F4FC4307F
:1049C000D105C9F686E4C3DA8823B9F096DF20E082
:1049D00030E0A9010F94EE2818167CF48EDF20E059
:1049E00030E040E752E40F94A427609353027093A1
:1049F00054028093550290935602DF91CF911F91FC
:104A00000F91FF90EF90DF90CF900895C33061F247
:104A1000FE01EE0FFF1FEE0FFF1FE051F14F20814F
:104A20003181428153810F94C726BECFF801808126
:104A30009181A281B381F70180839183A283B383A3
:104A4000B8CFFC0120E03EE2DB014D91BD014032D8
:104A500049F0283011F430833196DB0111974C91E5
:104A6000408331962F5F2B3079F71082089561E0F3
:104A7000FC0180810C94F2EF8EBD0DB407FEFDCFDA
:104A800008958FEF8EBD0DB407FEFDCF8EB508954E
:104A90008F929F92AF92BF92EF92FF920F931F93CC
:104AA000CF937C01C62F49015A01FC019281892FC5
:104AB000806A86958CBD90FD03C081E0963009F434
:104AC00080E08DBD60E0F70180810E94F2EF8CE212
:104AD00091E00E94DBF28C2F8064CEDF08E110E0D1
:104AE000D501C401002E04C0B695A795979587956A
:104AF0000A94D2F7C1DF08501109083FFFEF1F07E2
:104B000079F785E9CC2321F087E8C83009F08FEFE9
:104B1000B3DFCC3009F4B5DFC0E0B3DFF701838346
:104B200087FF04C0CF3F11F0CF5FF7CFCF911F9128
:104B30000F91FF90EF90BF90AF909F908F9008954E
:104B40000F931F93CF93DF93EC0189018C81833006
:104B500039F089E0440F551F661F771F8A95D1F7FA
:104B60009A01AB0168E1CE0193DF882319F086E05A
:104B7000898335C08EEF8EBDF801C8019E5F0DB4EC
:104B800007FEFDCF20812EBD0DB407FEFDCF218194
:104B90002EBD3296E817F90791F70DB407FEFDCF49
:104BA0008FEF6ADF8FEF68DF6CDF8B838F7185306B
:104BB00091F488E592E00E94DBF2182F87E111233F
:104BC000B9F220E030E0A9016DE0CE0161DF882379
:104BD00051F086E1CDCF83E18983CE0148DFCE015C
:104BE00046DF10E005C04DDF8111F3CFCE013FDF7E
:104BF000812FDF91CF911F910F910895CF938091D5
:104C00001811C1E0882399F04091101150911111B1
:104C1000609112117091131120E13FE08091191100
:104C200090911A118DDFC82F811104C0C0E08C2F24
:104C3000CF91089540911411509115116091161162
:104C400070911711411551056105710589F020E139
:104C50003FE08091191190911A1172DF882331F38E
:104C60001092141110921511109216111092171122
:104C700010921811DCCFEF92FF920F931F93CF93F6
:104C8000DF93EC0179018C81833039F089E0440FA6
:104C9000551F661F771F8A95D1F79A01AB0161E115
:104CA000CE01F6DE882331F084E08983CE01DFDE99
:104CB00080E034C00E94A0F18B01E3DE8B838F3F44
:104CC00071F40E94A0F1601B710B6D327140A8F36A
:104CD00081E18983CE01CBDE8FEFCEDEE9CF8E3F3F
:104CE00011F08FE0F6CF8FEF8EBDF701D701A15005
:104CF000BE4F0DB407FEFDCF9EB591938EBDAE178E
:104D0000BF07B9F70DB407FEFDCF8EB58C93B9DEA2
:104D1000B8DECE01ACDE8FEFAFDE81E0DF91CF9168
:104D20001F910F91FF90EF900895CF92DF92EF9235
:104D3000FF92CF936B017C01C42F80911011909151
:104D40001111A0911211B09113118C159D05AE0592
:104D5000BF05F1F053DF811108C0C0E08C2FCF9167
:104D6000FF90EF90DF90CF90089520E13FE0B701F2
:104D7000A6018091191190911A117DDF882369F3A2
:104D8000C0921011D0921111E0921211F0921311F1
:104D9000CC2321F081E080931811E0CFC1E0DECF79
:104DA0004F925F926F927F928F929F92AF92BF923B
:104DB000CF92DF92EF92FF920F931F93CF93DF93E7
:104DC000EC01423051056105710590F480E0DF91FE
:104DD000CF911F910F91FF90EF90DF90CF90BF90F8
:104DE000AF909F908F907F906F905F904F900895BD
:104DF00089859A85AB85BC850196A11DB11D841757
:104E00009507A607B70710F38F898031C1F5852E66
:104E1000962EA72EBB248B899C89AD89BE89880ECE
:104E2000991EAA1EBB1E280139016A017B0141E0BF
:104E3000C501B4017ADF882349F29F89903181F559
:104E4000DD24EE24FF24F601EE0FFF1FE05FF04F9C
:104E5000118300839A89923008F4B9CF4D815E8125
:104E60006F817885840E951EA61EB71E8092141140
:104E700090921511A0921611B0921711A8CF8032FE
:104E800009F0A4CF8B899C89AD89BE894A015B0159
:104E9000E7E0B694A79497948794EA95D1F7BFCFAB
:104EA000E894C7F8DD24EE24FF24F601EE0FFF1F7F
:104EB000EE0FFF1FE05FF04F4082518262827382EB
:104EC000C9CFCF92DF92EF92FF920F931F93CF93B0
:104ED000DF93FC0181859285A385B4850196A11D90
:104EE000B11D84179507A607B70750F480E0DF913E
:104EF000CF911F910F91FF90EF90DF90CF90089589
:104F000087898031A9F5BB27A72F962F852FC388C6
:104F1000D488E588F6888C0D9D1DAE1DBF1DE90166
:104F20006A017B018F014091101150911111609124
:104F300012117091131184179507A607B70749F549
:104F4000F8018789803161F5B701A60155276627E9
:104F50007727440F551F405F504FFA0180819181A0
:104F6000B0E0A0E088839983AA83BB8381E0BFCFB0
:104F7000803209F0BBCFC388D488E588F688DB018E
:104F8000CA01C7E0B695A79597958795CA95D1F7B9
:104F9000C2CF40E0BC01CD01C8DE8111D1CFA6CF88
:104FA000B701A6014F77552766277727440F551F6E
:104FB000440F551F405F504FFA0180819181A281BB
:104FC000B381BF70CFCF4F925F926F927F92AF92BB
:104FD000BF92CF92DF92EF92FF920F931F93CF93E6
:104FE000DF9300D01F92CDB7DEB78C0149835A837F
:104FF0006B837C835901C12CD12C7601412C82E03A
:10500000582E612C712C49815A816B817C819E01C3
:105010002F5F3F4FC80155DF882319F1F8018585BF
:10502000A301920104C0220F331F441F551F8A950C
:10503000D2F7DA01C901C80ED91EEA1EFB1E49814A
:105040005A816B817C8187898031F1F481E0483F0E
:105050005F4F61057105B8F2F501C082D182E2822D
:10506000F3820F900F900F900F90DF91CF911F91CF
:105070000F91FF90EF90DF90CF90BF90AF907F9017
:105080006F905F904F90089581E0483F5F4F6F4F62
:105090007F4008F4B8CFE0CF0F931F93CF93DF93F7
:1050A000FC012381222331F080E0DF91CF911F9119
:1050B0000F9108958B01EC01FB018789803139F54F
:1050C00082E08B831D8A1E8A1F8A188E808D918DA7
:1050D000B0E0A0E025E0880F991FAA1FBB1F2A950A
:1050E000D1F7898B9A8BAB8BBC8B1A8F098F81E0A0
:1050F0008983188619861A861B861C821D821E8249
:105100001F82188A1C861D861E861F86CECF80327F
:1051100059F683E08B83428D538D648D758D4D8B55
:105120005E8B6F8B788F9E012F5E3F4FC8014BDFE8
:105130008111DBCFB9CF8F929F92AF92BF92CF9266
:10514000DF92EF92FF920F931F93CF93DF93EC01C7
:105150008B8181110EC080E0DF91CF911F910F9163
:10516000FF90EF90DF90CF90BF90AF909F908F9087
:10517000089509891A892B893C8904171507260780
:10518000370748F34A015B01823031F488869986FB
:10519000AA86BB8681E0E0CF81149104A104B1040A
:1051A00049F4188619861A861B861C821D821E8267
:1051B0001F82F0CF088519852A853B85E98DFA8DF8
:1051C000858590E00996B901A8014150510961090E
:1051D0007109082E04C076956795579547950A94EE
:1051E000D2F775016401E1E0CE1AD108E108F108B7
:1051F00004C0F694E794D794C7948A95D2F7C4165E
:10520000D506E606F70620F0012B022B032B09F545
:105210008D899E89AF89B88D8C839D83AE83BF8332
:105220008E010C5F1F4FC114D104E104F10409F495
:10523000ADCF4C815D816E817F819801898D9A8D82
:1052400040DE91E0C91AD108E108F1088111EBCFE5
:1052500082CFC41AD50AE60AF70AE2CF40E050E04E
:10526000BA0169CF3F924F925F926F927F928F9275
:105270009F92AF92BF92CF92DF92EF92FF920F93E5
:105280001F93CF93DF93CDB7DEB72C970FB6F8946B
:10529000DEBF0FBECDBF5C01DC0159968D909C90A6
:1052A000F40181859285A385B4859C01AD012F5FB2
:1052B0003F4F4F4F5F4F29873A874B875C87D50118
:1052C00014964D905D906D907C9017974114510409
:1052D0006104710409F458C0BFEF4B1A5B0A6B0AF2
:1052E0007B0A312C730162011D821E821F82188687
:1052F000F40181859285A385B4852D813E814F81FE
:105300005885281739074A075B0708F054C0898574
:105310009A85AB85BC858C159D05AE05BF0550F4FF
:1053200082E0C82ED12CE12CF12C92E0492E512C98
:10533000612C712C9E012F5F3F4FB701A601C40164
:10534000C0DD8823C1F189819A81AB81BC81892B21
:105350008A2B8B2B01F1260137019FEF491A590A3D
:10536000690A790A2D813E814F8158852F5F3F4F11
:105370004F4F5F4F2D833E834F8358873FEFC31AB4
:10538000D30AE30AF30AB4CF40805180628073806D
:1053900033243394A7CFC414D504E604F70411F7DB
:1053A0000FEF1FEF2FEF3FE0B701A601C401F8DCBC
:1053B000782E81111AC0712C872D2C960FB6F89477
:1053C000DEBF0FBECDBFDF91CF911F910F91FF9038
:1053D000EF90DF90CF90BF90AF909F908F907F9095
:1053E0006F905F904F903F900895F50144815581F3
:1053F00066817781411551056105710531F097018D
:105400008601C401CDDC8823B1F2D5011496CD927A
:10541000DD92ED92FC921797332051F0D701C6012F
:105420000196A11DB11DF40180839183A283B383F2
:10543000F50185899689A789B08D892B8A2B8B2BBD
:1054400009F0BACFC58AD68AE78AF08E8181806852
:105450008183B2CFCF93DF93EC01462F41706C85EF
:105460007D858E859F8561DC882351F0888920E2C7
:10547000829FC0011124805F904FDF91CF910895EA
:1054800090E080E0FACFCF93DF93EC018B8188230B
:1054900039F1898187FF21C061E0CE01DBDFFC01AA
:1054A000892BF1F08081853ED9F08B81823040F4E8
:1054B00089899A89AB89BC89848F958FA68FB78F8C
:1054C0008D899E89938F828F8D899E89AF89B88DB2
:1054D000B58BA48B89818F778983DF91CF918ECB18
:1054E00081E0888380E0DF91CF9108952F923F92F1
:1054F0004F925F926F927F928F929F92AF92BF92E4
:10550000CF92DF92EF92FF920F931F93CF93DF938F
:1055100000D01F92CDB7DEB78C014B011A01DC0120
:1055200013968C911397813009F0C7C011968C9116
:1055300081FFC3C082FDAEC06101D80118964D91B4
:105540005D916D917C911B97C114D10409F414C134
:1055500059968D919C915A97FC0174802FEF270DDD
:105560002A013B0139E076946794579447943A9521
:10557000D1F7722E74207A01F1E0FF2271101FC062
:10558000E114F104E1F414964D915D916D917C91DB
:105590001797411551056105710509F094C055969D
:1055A0008D919D910D90BC91A02D0097A105B10505
:1055B00009F0A1C0C80156DE882309F47EC080E04E
:1055C00092E08E199F0956018C159D0508F45C0127
:1055D000D80159964D915C915A9714968D919D9151
:1055E0000D90BC91A02D0297A109B109FA01258562
:1055F00004C0880F991FAA1FBB1F2A95D2F74685A2
:10560000578560897189840F951FA61FB71F9C015C
:10561000AD01270D311D411D511D29013A01A11474
:1056200032E0B30609F075C080911011909111110C
:10563000A0911211B0911311481659066A067B0603
:1056400069F4109218118FEF9FEFDC018093101115
:1056500090931111A0931211B09313119401B301FF
:10566000A2018091191190911A116ADA882329F107
:10567000F80180859185A285B3858A0D9B1DA11DAA
:10568000B11D80879187A287B3878A0C9B1CCA189B
:10569000DB0853CFF8014189528963897489808579
:1056A0009185A285B385481759076A077B0709F4D6
:1056B00043CFC80140DD81113FCF81E0D8018C93F9
:1056C0008FEF9FEF6FC09E012F5F3F4FFADB882364
:1056D000A1F389819A81AB81BC81F801218D328D42
:1056E000F9012789203169F4883FFFEF9F07A10561
:1056F000B10508F05FCFF80184839583A683B78353
:105700005ECF883F2FEF9207A2072FE0B20798F3F2
:1057100051CFE114F10449F5D80118964D915D91EE
:105720006D917C911B9751968D919D910D90BC919F
:10573000A02D481759076A077B07B8F05FDA88235E
:1057400009F4BBCF81E08093181140921011509260
:1057500011116092121170921311A501B401C701C9
:10576000805F904F0F94E52983CF41E0C301B201E0
:10577000DCDA8111F2CFA1CFF80181899289A38966
:10578000B48984179507A607B70738F48181418B40
:10579000528B638B748B80688183F801818183FDD8
:1057A00018C0C1010F900F900F900F90DF91CF9113
:1057B0001F910F91FF90EF90DF90CF90BF90AF902F
:1057C0009F908F907F906F905F904F903F902F9021
:1057D0000895C80158DE8111E4CF6FCFCF93DF93D6
:1057E0001F92CDB7DEB7698341E050E0BE016F5F25
:1057F0007F4F04967BDE0F90DF91CF910895CF937A
:10580000DF93EC0140DE1B82DF91CF910895FC0114
:1058100023812111F4CF0895CF93DF93EB01FC0195
:105820002381211104C080E0DF91CF91089522509F
:10583000223028F48FE28883198281E0F5CF60E07E
:1058400009DE009781F3DC0160E080E09EE22D91AB
:10585000203299F0883031F49E01260F311DF90174
:1058600090836F5F9E01260F311DAD01415051099C
:10587000FA014081F90140836F5F8F5F8B3039F708
:10588000FE01E60FF11D1082D8CF0F931F93CF9327
:10589000DF938B01EA01DB016D917C910496BCDF03
:1058A000D801ED91FC91119788819081992349F05D
:1058B0008D38A0F43196ED93FC9388818F5F8883B7
:1058C000EFCF8D3858F48FE28083F8018081918189
:1058D00001969183808388818F5F8883DF91CF9148
:1058E0001F910F9108952F923F924F925F926F9266
:1058F0007F928F929F92AF92BF92CF92DF92EF9260
:10590000FF920F931F93CF93DF9300D01F92CDB7D9
:10591000DEB79C838B834B017A01DC0113968C915B
:10592000811119C08FEF9FEF0F900F900F900F9084
:10593000DF91CF911F910F91FF90EF90DF90CF906B
:10594000BF90AF909F908F907F906F905F904F909F
:105950003F902F900895EB81FC81818180FFE2CF01
:10596000018912892389348940855185628573852F
:10597000C701B0E0A0E028013901441A550A660ABF
:10598000770A481659066A067B0618F47801E41A65
:10599000F50A67018B819C8104969A838983612C27
:1059A00032E0732EC114D10409F4B4C0AB81BC81C0
:1059B00018964D915D916D917C911B975A01B1E0C4
:1059C000BB22EB81FC81818D928D1A012B0129E094
:1059D00056944794379427942A95D1F723812230FF
:1059E00089F5DC015A966D917D918D919C915D9721
:1059F000620D731D841D951D83010A191B09C016B4
:105A0000D10608F486010115B2E01B0771F420915C
:105A10001011309111114091121150911311621710
:105A200073078407950709F057C040E07ED98823A3
:105A300009F478CFB501605F704FA801C4010F94DD
:105A4000E52955C0FC01148111501221A114B104A3
:105A500081F411110EC0452B462B472B79F5EB81B4
:105A6000FC8185899689A789B08D84839583A683D7
:105A7000B783AB81BC815996ED91FC915A971496EE
:105A80006D917D918D919C9117976250710981095B
:105A90009109258504C0660F771F881F991F2A95D5
:105AA000D2F72685378540895189620F731F841F7D
:105AB000951F610F711D811D911D9ECFAB81BC8112
:105AC00014964D915D916D917C91179729813A8142
:105AD000F8D98111CECF26CF9401AB01BC018091C2
